{
  "_format": "hh-sol-artifact-1",
  "contractName": "Marketplace",
  "sourceName": "src/backend/contracts/Marketplace.sol",
  "abi": [
    {
      "inputs": [
        {
          "internalType": "uint256",
          "name": "_feePercent",
          "type": "uint256"
        }
      ],
      "stateMutability": "nonpayable",
      "type": "constructor"
    },
    {
      "anonymous": false,
      "inputs": [
        {
          "indexed": false,
          "internalType": "uint256",
          "name": "itemId",
          "type": "uint256"
        },
        {
          "indexed": true,
          "internalType": "address",
          "name": "nft",
          "type": "address"
        },
        {
          "indexed": false,
          "internalType": "uint256",
          "name": "tokenId",
          "type": "uint256"
        },
        {
          "indexed": false,
          "internalType": "uint256",
          "name": "price",
          "type": "uint256"
        },
        {
          "indexed": true,
          "internalType": "address",
          "name": "seller",
          "type": "address"
        },
        {
          "indexed": true,
          "internalType": "address",
          "name": "buyer",
          "type": "address"
        }
      ],
      "name": "Bought",
      "type": "event"
    },
    {
      "anonymous": false,
      "inputs": [
        {
          "indexed": true,
          "internalType": "address",
          "name": "seller",
          "type": "address"
        },
        {
          "indexed": true,
          "internalType": "address",
          "name": "nftAddress",
          "type": "address"
        },
        {
          "indexed": true,
          "internalType": "uint256",
          "name": "tokenId",
          "type": "uint256"
        }
      ],
      "name": "ItemCanceled",
      "type": "event"
    },
    {
      "anonymous": false,
      "inputs": [
        {
          "indexed": false,
          "internalType": "uint256",
          "name": "itemId",
          "type": "uint256"
        },
        {
          "indexed": true,
          "internalType": "address",
          "name": "nft",
          "type": "address"
        },
        {
          "indexed": false,
          "internalType": "uint256",
          "name": "tokenId",
          "type": "uint256"
        },
        {
          "indexed": false,
          "internalType": "uint256",
          "name": "price",
          "type": "uint256"
        },
        {
          "indexed": true,
          "internalType": "address",
          "name": "seller",
          "type": "address"
        }
      ],
      "name": "Offered",
      "type": "event"
    },
    {
      "anonymous": false,
      "inputs": [
        {
          "indexed": false,
          "internalType": "uint256",
          "name": "itemId",
          "type": "uint256"
        },
        {
          "indexed": true,
          "internalType": "address",
          "name": "nft",
          "type": "address"
        },
        {
          "indexed": false,
          "internalType": "uint256",
          "name": "tokenId",
          "type": "uint256"
        },
        {
          "indexed": false,
          "internalType": "uint256",
          "name": "price",
          "type": "uint256"
        },
        {
          "indexed": true,
          "internalType": "address",
          "name": "seller",
          "type": "address"
        },
        {
          "indexed": true,
          "internalType": "address",
          "name": "buyer",
          "type": "address"
        }
      ],
      "name": "changedPrice",
      "type": "event"
    },
    {
      "inputs": [
        {
          "internalType": "address",
          "name": "nftAddress",
          "type": "address"
        },
        {
          "internalType": "uint256",
          "name": "_itemId",
          "type": "uint256"
        }
      ],
      "name": "deleteNftFromMarket",
      "outputs": [],
      "stateMutability": "nonpayable",
      "type": "function"
    },
    {
      "inputs": [],
      "name": "feeAccount",
      "outputs": [
        {
          "internalType": "address payable",
          "name": "",
          "type": "address"
        }
      ],
      "stateMutability": "view",
      "type": "function"
    },
    {
      "inputs": [],
      "name": "feePercent",
      "outputs": [
        {
          "internalType": "uint256",
          "name": "",
          "type": "uint256"
        }
      ],
      "stateMutability": "view",
      "type": "function"
    },
    {
      "inputs": [
        {
          "internalType": "uint256",
          "name": "_itemId",
          "type": "uint256"
        }
      ],
      "name": "getTotalPrice",
      "outputs": [
        {
          "internalType": "uint256",
          "name": "",
          "type": "uint256"
        }
      ],
      "stateMutability": "view",
      "type": "function"
    },
    {
      "inputs": [],
      "name": "itemCount",
      "outputs": [
        {
          "internalType": "uint256",
          "name": "",
          "type": "uint256"
        }
      ],
      "stateMutability": "view",
      "type": "function"
    },
    {
      "inputs": [
        {
          "internalType": "uint256",
          "name": "",
          "type": "uint256"
        }
      ],
      "name": "items",
      "outputs": [
        {
          "internalType": "uint256",
          "name": "itemId",
          "type": "uint256"
        },
        {
          "internalType": "contract IERC721",
          "name": "nft",
          "type": "address"
        },
        {
          "internalType": "uint256",
          "name": "tokenId",
          "type": "uint256"
        },
        {
          "internalType": "uint256",
          "name": "price",
          "type": "uint256"
        },
        {
          "internalType": "address payable",
          "name": "seller",
          "type": "address"
        },
        {
          "internalType": "bool",
          "name": "sold",
          "type": "bool"
        }
      ],
      "stateMutability": "view",
      "type": "function"
    },
    {
      "inputs": [
        {
          "internalType": "contract IERC721",
          "name": "_nft",
          "type": "address"
        },
        {
          "internalType": "uint256",
          "name": "_tokenId",
          "type": "uint256"
        },
        {
          "internalType": "uint256",
          "name": "_price",
          "type": "uint256"
        }
      ],
      "name": "makeItem",
      "outputs": [],
      "stateMutability": "nonpayable",
      "type": "function"
    },
    {
      "inputs": [
        {
          "internalType": "uint256",
          "name": "_itemId",
          "type": "uint256"
        }
      ],
      "name": "purchaseItem",
      "outputs": [],
      "stateMutability": "payable",
      "type": "function"
    },
    {
      "inputs": [
        {
          "internalType": "uint256",
          "name": "_itemId",
          "type": "uint256"
        },
        {
          "internalType": "uint256",
          "name": "newPrice",
          "type": "uint256"
        }
      ],
      "name": "updateNFTPrice",
      "outputs": [],
      "stateMutability": "nonpayable",
      "type": "function"
    }
  ],
  "bytecode": "0x60c06040523480156200001157600080fd5b506040516200155b3803806200155b8339818101604052810190620000379190620000c2565b60016000819055503373ffffffffffffffffffffffffffffffffffffffff1660808173ffffffffffffffffffffffffffffffffffffffff16815250508060a0818152505050620000f4565b600080fd5b6000819050919050565b6200009c8162000087565b8114620000a857600080fd5b50565b600081519050620000bc8162000091565b92915050565b600060208284031215620000db57620000da62000082565b5b6000620000eb84828501620000ab565b91505092915050565b60805160a05161143362000128600039600081816104710152610522015260008181610447015261070201526114336000f3fe6080604052600436106100865760003560e01c80637fd6f15c116100595780637fd6f15c14610133578063bfb231d21461015e578063ca7dd375146101a0578063d38ea5bf146101dd578063fa00afc7146101f957610086565b8063365a79191461008b5780634ac0123d146100b457806365e17c9d146100dd5780636bfb0d0114610108575b600080fd5b34801561009757600080fd5b506100b260048036038101906100ad9190610c86565b610222565b005b3480156100c057600080fd5b506100db60048036038101906100d69190610cc6565b610311565b005b3480156100e957600080fd5b506100f2610445565b6040516100ff9190610d27565b60405180910390f35b34801561011457600080fd5b5061011d610469565b60405161012a9190610d51565b60405180910390f35b34801561013f57600080fd5b5061014861046f565b6040516101559190610d51565b60405180910390f35b34801561016a57600080fd5b5061018560048036038101906101809190610d6c565b610493565b60405161019796959493929190610e13565b60405180910390f35b3480156101ac57600080fd5b506101c760048036038101906101c29190610d6c565b61051c565b6040516101d49190610d51565b60405180910390f35b6101f760048036038101906101f29190610d6c565b61057f565b005b34801561020557600080fd5b50610220600480360381019061021b9190610eb2565b610907565b005b600260008281526020019081526020016000206000808201600090556001820160006101000a81549073ffffffffffffffffffffffffffffffffffffffff0219169055600282016000905560038201600090556004820160006101000a81549073ffffffffffffffffffffffffffffffffffffffff02191690556004820160146101000a81549060ff02191690555050808273ffffffffffffffffffffffffffffffffffffffff163373ffffffffffffffffffffffffffffffffffffffff167f9ba1a3cb55ce8d63d072a886f94d2a744f50cddf82128e897d0661f5ec62315860405160405180910390a45050565b60006002600084815260200190815260200160002090506000821161036b576040517f08c379a000000000000000000000000000000000000000000000000000000000815260040161036290610f62565b60405180910390fd5b8181600301819055503373ffffffffffffffffffffffffffffffffffffffff168160040160009054906101000a900473ffffffffffffffffffffffffffffffffffffffff1673ffffffffffffffffffffffffffffffffffffffff168260010160009054906101000a900473ffffffffffffffffffffffffffffffffffffffff1673ffffffffffffffffffffffffffffffffffffffff167fb6ffaa0264925a3d2ab6c69fde32f0fdb6f170bb952c32a8a23588b64a3918908685600201548760405161043893929190610f82565b60405180910390a4505050565b7f000000000000000000000000000000000000000000000000000000000000000081565b60015481565b7f000000000000000000000000000000000000000000000000000000000000000081565b60026020528060005260406000206000915090508060000154908060010160009054906101000a900473ffffffffffffffffffffffffffffffffffffffff16908060020154908060030154908060040160009054906101000a900473ffffffffffffffffffffffffffffffffffffffff16908060040160149054906101000a900460ff16905086565b600060647f0000000000000000000000000000000000000000000000000000000000000000606461054d9190610fe8565b600260008581526020019081526020016000206003015461056e919061103e565b61057891906110c7565b9050919050565b610587610b93565b60006105928261051c565b905060006002600084815260200190815260200160002090506000831180156105bd57506001548311155b6105fc576040517f08c379a00000000000000000000000000000000000000000000000000000000081526004016105f390611144565b60405180910390fd5b8134101561063f576040517f08c379a0000000000000000000000000000000000000000000000000000000008152600401610636906111d6565b60405180910390fd5b8060040160149054906101000a900460ff1615610691576040517f08c379a000000000000000000000000000000000000000000000000000000000815260040161068890611242565b60405180910390fd5b8060040160009054906101000a900473ffffffffffffffffffffffffffffffffffffffff1673ffffffffffffffffffffffffffffffffffffffff166108fc82600301549081150290604051600060405180830381858888f193505050501580156106ff573d6000803e3d6000fd5b507f000000000000000000000000000000000000000000000000000000000000000073ffffffffffffffffffffffffffffffffffffffff166108fc82600301548461074a9190611262565b9081150290604051600060405180830381858888f19350505050158015610775573d6000803e3d6000fd5b5060018160040160146101000a81548160ff0219169083151502179055508060010160009054906101000a900473ffffffffffffffffffffffffffffffffffffffff1673ffffffffffffffffffffffffffffffffffffffff166323b872dd303384600201546040518463ffffffff1660e01b81526004016107f8939291906112a5565b600060405180830381600087803b15801561081257600080fd5b505af1158015610826573d6000803e3d6000fd5b505050503373ffffffffffffffffffffffffffffffffffffffff168160040160009054906101000a900473ffffffffffffffffffffffffffffffffffffffff1673ffffffffffffffffffffffffffffffffffffffff168260010160009054906101000a900473ffffffffffffffffffffffffffffffffffffffff1673ffffffffffffffffffffffffffffffffffffffff167f8b4c9c8a607d67b321582dd8461041b1dc2ceeca70c8b7f37f8e02095cf2e76d86856002015486600301546040516108f293929190610f82565b60405180910390a45050610904610be3565b50565b61090f610b93565b60008111610952576040517f08c379a000000000000000000000000000000000000000000000000000000000815260040161094990611328565b60405180910390fd5b6001600081548092919061096590611348565b91905055508273ffffffffffffffffffffffffffffffffffffffff166323b872dd3330856040518463ffffffff1660e01b81526004016109a7939291906112a5565b600060405180830381600087803b1580156109c157600080fd5b505af11580156109d5573d6000803e3d6000fd5b505050506040518060c0016040528060015481526020018473ffffffffffffffffffffffffffffffffffffffff1681526020018381526020018281526020013373ffffffffffffffffffffffffffffffffffffffff168152602001600015158152506002600060015481526020019081526020016000206000820151816000015560208201518160010160006101000a81548173ffffffffffffffffffffffffffffffffffffffff021916908373ffffffffffffffffffffffffffffffffffffffff160217905550604082015181600201556060820151816003015560808201518160040160006101000a81548173ffffffffffffffffffffffffffffffffffffffff021916908373ffffffffffffffffffffffffffffffffffffffff16021790555060a08201518160040160146101000a81548160ff0219169083151502179055509050503373ffffffffffffffffffffffffffffffffffffffff168373ffffffffffffffffffffffffffffffffffffffff167f655a0cf9c8db81512be9a76dc1c5ae5380b8816ce6ad659cd61b715e2999d59a6001548585604051610b7e93929190610f82565b60405180910390a3610b8e610be3565b505050565b60026000541415610bd9576040517f08c379a0000000000000000000000000000000000000000000000000000000008152600401610bd0906113dd565b60405180910390fd5b6002600081905550565b6001600081905550565b600080fd5b600073ffffffffffffffffffffffffffffffffffffffff82169050919050565b6000610c1d82610bf2565b9050919050565b610c2d81610c12565b8114610c3857600080fd5b50565b600081359050610c4a81610c24565b92915050565b6000819050919050565b610c6381610c50565b8114610c6e57600080fd5b50565b600081359050610c8081610c5a565b92915050565b60008060408385031215610c9d57610c9c610bed565b5b6000610cab85828601610c3b565b9250506020610cbc85828601610c71565b9150509250929050565b60008060408385031215610cdd57610cdc610bed565b5b6000610ceb85828601610c71565b9250506020610cfc85828601610c71565b9150509250929050565b6000610d1182610bf2565b9050919050565b610d2181610d06565b82525050565b6000602082019050610d3c6000830184610d18565b92915050565b610d4b81610c50565b82525050565b6000602082019050610d666000830184610d42565b92915050565b600060208284031215610d8257610d81610bed565b5b6000610d9084828501610c71565b91505092915050565b6000819050919050565b6000610dbe610db9610db484610bf2565b610d99565b610bf2565b9050919050565b6000610dd082610da3565b9050919050565b6000610de282610dc5565b9050919050565b610df281610dd7565b82525050565b60008115159050919050565b610e0d81610df8565b82525050565b600060c082019050610e286000830189610d42565b610e356020830188610de9565b610e426040830187610d42565b610e4f6060830186610d42565b610e5c6080830185610d18565b610e6960a0830184610e04565b979650505050505050565b6000610e7f82610c12565b9050919050565b610e8f81610e74565b8114610e9a57600080fd5b50565b600081359050610eac81610e86565b92915050565b600080600060608486031215610ecb57610eca610bed565b5b6000610ed986828701610e9d565b9350506020610eea86828701610c71565b9250506040610efb86828701610c71565b9150509250925092565b600082825260208201905092915050565b7f457468657220746f6f206c6f7721000000000000000000000000000000000000600082015250565b6000610f4c600e83610f05565b9150610f5782610f16565b602082019050919050565b60006020820190508181036000830152610f7b81610f3f565b9050919050565b6000606082019050610f976000830186610d42565b610fa46020830185610d42565b610fb16040830184610d42565b949350505050565b7f4e487b7100000000000000000000000000000000000000000000000000000000600052601160045260246000fd5b6000610ff382610c50565b9150610ffe83610c50565b9250827fffffffffffffffffffffffffffffffffffffffffffffffffffffffffffffffff0382111561103357611032610fb9565b5b828201905092915050565b600061104982610c50565b915061105483610c50565b9250817fffffffffffffffffffffffffffffffffffffffffffffffffffffffffffffffff048311821515161561108d5761108c610fb9565b5b828202905092915050565b7f4e487b7100000000000000000000000000000000000000000000000000000000600052601260045260246000fd5b60006110d282610c50565b91506110dd83610c50565b9250826110ed576110ec611098565b5b828204905092915050565b7f6974656d20646f65736e27742065786973740000000000000000000000000000600082015250565b600061112e601283610f05565b9150611139826110f8565b602082019050919050565b6000602082019050818103600083015261115d81611121565b9050919050565b7f6e6f7420656e6f75676820657468657220746f20636f766572206974656d207060008201527f7269636520616e64206d61726b65742066656500000000000000000000000000602082015250565b60006111c0603383610f05565b91506111cb82611164565b604082019050919050565b600060208201905081810360008301526111ef816111b3565b9050919050565b7f6974656d20616c726561647920736f6c64000000000000000000000000000000600082015250565b600061122c601183610f05565b9150611237826111f6565b602082019050919050565b6000602082019050818103600083015261125b8161121f565b9050919050565b600061126d82610c50565b915061127883610c50565b92508282101561128b5761128a610fb9565b5b828203905092915050565b61129f81610c12565b82525050565b60006060820190506112ba6000830186611296565b6112c76020830185611296565b6112d46040830184610d42565b949350505050565b7f5072696365206d7573742062652067726561746572207468616e207a65726f00600082015250565b6000611312601f83610f05565b915061131d826112dc565b602082019050919050565b6000602082019050818103600083015261134181611305565b9050919050565b600061135382610c50565b91507fffffffffffffffffffffffffffffffffffffffffffffffffffffffffffffffff82141561138657611385610fb9565b5b600182019050919050565b7f5265656e7472616e637947756172643a207265656e7472616e742063616c6c00600082015250565b60006113c7601f83610f05565b91506113d282611391565b602082019050919050565b600060208201905081810360008301526113f6816113ba565b905091905056fea26469706673582212202e5c258f6e98e2cd8a47892681187f932cccb7b5d5c84072882bdc21d1a2af8264736f6c63430008090033",
  "linkReferences": {},
  "deployedLinkReferences": {}
}